:20000000003C01202DD8000039FB021039FB021039FB021039FB021039FB021039FB0210DA
:1C00200039FB021039FB021039FB021039FB021039FB021039FB021011FB021002
:20003C002DE9F04FADF1240D01F0F0FCBD4C606C00214FF040424FF0FF3312F099F85FEA9F
:20005C00000BF4D0002002900DF10E0102AA03A80FF0E6FC002840F01081BDF80C001028DC
:20007C0040F00781E07D9DF80E10884240F00181029908884FF6FF72824200F0FA80087891
:20009C0091381CD01F3803D0203800F0EF80F0E00D4628797E280CD07F280AD10889AB4961
:2000BC0000900978606A0022A4A3491CC9B210F028F8297905F1080012F056F8D9E0487877
:2000DC000E3817D0401E0BD0401E00F0CA802E3840F0CF8088780C2840F0CB800C2006E060
:2000FC00888842F23202824240F0C38010460BF0DDF8BEE0084682688788117841F2054326
:20011C00FF1A10D0A7F62B47002F40F0B280002940F0AF80D078009010798C4F0190397824
:20013C00BBA3C91D97E08068401C90F90280002940F09F804178007800EB012010F032FCB6
:20015C000746082F80F25D83B8F17F0F04F5347A74D0F80000EB07100AEB0005697C4A1C4C
:20017C006A744118514481F80C80697C05231E46324691FBF2F25A430AEB0003891A0020E1
:20019C00697403F10C0111F9012B761E024410B2F9D1052190FBF1F040B2A874EE7C002E91
:2001BC004CD110F11F0F4FF0000904DD2E7D022E18BF002E23D195F9120010F11E0F07DA2B
:2001DC0010F1290F04DD2E7D012E18BF002E13D110F1330F04DD10F1280F2FDA2E7D36B927
:2001FC0010F1320F2ADA04214FF0020908E004214FF00109062604E00126314601E0022126
:20021C000226687D864202D1AB7D022B01DB864214D028880A464B460EF060FE0120E874D3
:20023C00687D86421CBF0020A875B9F1000F04D0B9F1010F14BF022606266E75F800CDF8CF
:20025C00008000EB0710504490F912003F4E01903178BDA3491D606AC9B200220FF051FF8E
:20027C0007E00820002104F055FA02E0084601F0FBF9029808B111F04CFB5FEADB70FFF4B8
:20029C00D6AE83E2C10001EB0010001990F8E702012840F07482BD494246102005F0BCF95B
:2002BC006DE26E68707A50B1B948284900900978606A0022BAA3C91CC9B20FF022FFB448CA
:2002DC000090B449F2880023102005F0A5F956E26B681E491879626A09781B78FBB15B1E0D
:2002FC0010D05B1E08D05B1E40F04982002808BFAFA30DD0B3A30AE0002808BFB7A307D0BF
:20031C00BBA304E0002808BFBFA301D0C2A300901046C91C0022C9B20FF0F3FE2FE2CBA321
:20033C00F6E7C046201B002068680168B1F1004F00F0258240680FF085F920E24D54552065
:20035C0053697A653A20256400C046C02C33002068680078002847D0801E40F0108204F5DE
:20037C00647102200DF0F2FC0120074604F5647C94F84C14607194F84D0427724029CCBF11
:20039C00373930394028C9B2CCBF37383038C0B240EA01105FFA80FE9CF8BF008DF80FE0D8
:2003BC004028CCBF373830380021C7B207B101219CF8C9004028CCBF37383038C7B2002023
:2003DC0007B10120BEF1580FE07307D0A07BBEF1590F12BF081C0021A17103E0A17301276F
:2003FC00A77100206073CAE100200DF10F010DF0ADFCC4E16868B0F801000AF0FDFDC2E1A2
:20041C000FF0DAFFBBE10120E07000272771B6E1525850683A2025642C20545850683A2036
:20043C00256400C004F590663078532864D196F8EF00582860D1F0784028D4BF30383738A8
:20045C00C1B230794028D4BF30383738C0B240EA0110C0B2607501284ED1E07B00284BD0B8
:20047C00A37D06F1850206F17D0006F17501059204F17C0706F1D10B06F1D90A04900691FA
:20049C0006F18D020792CBB194ED7E0AD4ED800A84ED1D0A0020C4ED1E0AA07587ED000A2D
:2004BC008046C7ED010A062010F020FF08B94FF001080621484642460EF0B6FC049897ED40
:2004DC00000A0EF091FE059897ED010A0EF08CFE069894ED860A0EF087FE079894ED870AD2
:2004FC000EF082FE584694ED820A0EF07DFE504694ED830A0EF078FEF178307940EA0110D9
:20051C00C2B2592A03D10020A071A77B6773607C217C20B903290CD0052906D109E0012A54
:20053C000ED0032905D0052903D00020022840F026812078002800F022810AF0F1F91EE168
:20055C00002060741BE1C046525353493A25642064426D2C2041564720525353493A256404
:20057C002064426D00C0162010F0B6FEC0B200285BD1A07A80B194F8000120B101280BD00F
:20059C00A06B11F06EF90120089052E00D2B021040E20100A1FA000000200890EFE0C0464C
:2005BC0050617373636F64653A20256400C046C0426F6E642073617665207375636365734C
:2005DC007300C046426F6E642073617665206661696C65643A20256400C046C0456E63727E
:2005FC00797074696F6E207375636365737300C0456E6372797074696F6E206661696C6517
:20061C00643A20256400C04650616972696E6720737563636573730050616972696E6720A4
:20063C006661696C3A20256400C00898002800F0A680677B6279E37804F5AE60A7B9012AD7
:20065C000CD0A779CFB1052118E0C04650616972696E6720737461727465640000210327B2
:20067C0061713E46267427E02179012B1AD0012A10D001290AD0022903D0002121740F469F
:20069C001AE0042121740F46032114E0022121740F4610E000220327032962713E462674B7
:2006BC000ADA06E00122002622741746E6703B466374491CC9B221715826532180F8EF603F
:2006DC00E379E27C01703E46711E37D0491E2FD0491E14D0491E0BD0491E50D138275B1C68
:2006FC00312680F8BC70DAB280F8BD6011462FE0462180F8BC10452780F8BD70F6E7A17CA6
:20071C0094F8913394F89223E174402B04F56471CCBF373B303B402ADBB2CCBF373A303AD9
:20073C00D2B242EA0312A274F0220AF013F815E05B1CDAB238273126114605E011464B1E01
:20075C004627DBB2E3743E4680F8BC7080F8BD60E2710A11427001F00F0181700020012814
:20077C000DD004F1F006F0203060E06A122100220EF05AFBA06B314611F06EF820756868B5
:20079C0008B10EF05FFF28460EF05CFFA06C11F0E7FC00287FF44BACA06C10F0A5FB051C12
:2007BC00F4D02978D4F83090491E092903D93F393FF438AEE3E7890001A040588746C046C7
:2007DC006D0300009B07000045030000ED020000BF020000230400001D0400001104000096
:2007FC0005080000830500006E684846072101220EF01AFB7088804610F0D4F80828FFF6D7
:20081C0041AD10F016FD09B0BDE8F08F2DE9F04FBA4EA6F11F04ADF1240DDFF8DC8220782B
:20083C000591C90BCF032CD10599A069C90811D20598000938BF0020C0F0C582A07B012810
:20085C0004D14146087808B90AF092F9059880F00800B7E288B110F0B1FA071C0DD0F87A56
:20087C0058B9384611F06DF87A68B97A388905F021FE786808B110F09DFE059880F0040038
:20089C00A0E20AF009FA0028069000F098820546012007902878B03800F0F481401E00F0B7
:2008BC00E7811F3840F07E82A978606900270A290FDC0A2900F0B180002900F0AC81491FFC
:2008DC0000F09D81491E00F06E81C81E00F05481CCE10B3900F08B80C91E7ED0491E0DD098
:2008FC00481E40F0C381227810F068FA002800F058811046042108F087FE52E12E4628B19D
:20091C0043681BB1A88839460A4698476078002860D0B08811F020FC051C00F0A781B07A7E
:20093C0040080ED36979A81D3A4601F001010AF041F830B1687920B1012802D0F068800AB5
:20095C0043D3207A022802D1B07A00093DD3B6F804806D790C2010F01DFE06F10809061C02
:20097C0000F01F81A6F80880B57239463160B9F1000FF77209D04846082110F049FA7060A9
:20099C0020B9304610F016FE0BE17160A369002B08BFA66102D01A68AAB91E60304610F06B
:2009BC00D0FF4A462946404605F084FD6069002800F0F7804368002B00F0F38039464046BB
:2009DC000A469847EDE01346E5E7B088032111F0BFFB4BE1B08805211CE0002800F0E180C4
:2009FC004368002B00F0DD806A780221C2E011F0ABFB002800F0D580606948B107683FB1DC
:200A1C002869009069892A7B6B7BE81CB847C8E06889079911F09CFBC3E0B9466F78002F90
:200A3C0040F09880A9794908C0F0948002A84946082210F0DAFFA88811F08EFB071C09D128
:200A5C00227810F0BBF9002864D01046042108F0DBFD5FE06E69002E52D006F11100494688
:200A7C00062210F04EFAC84600B33046062210F048FAB8B9307C06F1110A4E4600F0010B8A
:200A9C00761C504659464A46F6B28AF8006009F091FF10B9002EF3D104E01EB1B8F1010FA9
:200ABC0002D006E0DDF81C804E466E61B8F1010F26D0686970B30646307C062206F11101C2
:200ADC0000F001008DF80E0002A810F09FFA787906F11108012805D107F10C00B91D062231
:200AFC0010F094FAB81D4146062210F08FFA307C40F0020078710DE0AA0F0020732C0020F3
:200B1C007879B91D062200F001008DF80E0002A810F07CFAA8799DF80F10C0F380000843D3
:200B3C008DF80F00A879000905D39DF80F0040F008008DF80F0002A8294603F023FC5FEA1F
:200B5C00000903D1A8880DF083FC02E0A8880EF0B1FE606928B343681BB3A8886A78079962
:200B7C0098476878E8B9A87940081AD3606903214A464368A88824E7E978281D0DF1110289
:200B9C0001F0010109F016FF58B99DF81110062005F10C0211FB00F025300421C0B20FF060
:200BBC006FFC079F62E0A8880EF084FE11F0C8FA00285BD1E07A012813D0207B01280CD0F9
:200BDC003C4616F8010F012803D1204607F0A6FA3770641C0A2CF4DB0CE00BF076FC277340
:200BFC0008E010F005FB394604F120000A22E17210F0FBFE10F0F2FB0DF02AFA36E06878E1
:200C1C00002833D1E8786A892B7B291D00F0010008F048FA2AE0687840BB11F08DFA8146EE
:200C3C0011F086FA804611F07FFA8DF8100010214A4602200FF024FC0320102142460FF065
:200C5C001FFC0799042004AA0FF01AFC9DF81000012803D09DF81000032807D1079811F0ED
:200C7C005FFA0246062001460FF00AFC079799E02879002840F096806888E9882A890CF00F
:200C9C00F3FD8FE02879401E40D0083802D074387BD082E068781A2873D0688880460FF045
:200CBC00A1FE801E18D0401E77D1288901280AD16889032807D1E9688A78404604210CF0AA
:200CDC0056FE024600E018226069002865D04368002B62D0042116E029896888079A01298C
:200CFC00804609D16989032906D1E9688F781FB910210CF03CFE0246606900284DD04368AB
:200D1C00002B4AD005214046984746E0297A688805F108060829824633D10FF063FE801E2F
:200D3C000ED0401E2DD16889042100220CF01FFE0246606928B343681BB3688904211FE092
:200D5C007088102100220CF012FE8146504611F003FA70B141460F784FB94179079A871D8F
:200D7C0001F001010846394611F0D6F901E00798A073606928B143681BB1708805214A466D
:200D9C00984768880DF064FB07E06C8820460FF029FE014620460CF093FE297905F10800CB
:200DBC0011F0E2F9079838B908480078FF2806D006990FF087FE02E006980FF073FE059836
:200DDC0080F4004080B209B0BDE8F08F853000202DE9F84FDFF8B054A9780024FF2904BFF7
:200DFC0000200FF0F9FFA87810F0E4FA054605F1680605F5C9773168086805F1900808B189
:200E1C00EC8311E0B17B002904BFB07E00280BD198F80010002904BF3878002804D1297F2B
:200E3C00012904BF688CE8832989E88B4118491C6981284611F06CF901281EBFDFF84C047C
:200E5C000178012903D12889EC83401C68814FF6FF79B07E01280DD1B28B6989288911F0C7
:200E7C0053F938B1298968894A1C93B298422FD0B08B23E098F8000001280FD1B8F8022051
:200E9C006989288911F040F940B1298968894A1C93B298421CD0B8F802000FE038780128DA
:200EBC0016D17A886989288911F02EF980B1298968894A1C93B298420AD0788892B2904219
:200EDC0006D04844688180B211F01AF94844E883387801280ED129897888491C89B28142A1
:200EFC0008DB7C793C71002038702346A979224608F0EAFB05F59A71087920B12889002190
:200F1C00401CE983688105F12E08B07E012845D12A89B08B521C92B290423FD1688105F10A
:200F3C008601284611F0E8F8B08C6989688400202877E883E8894118A981B08B298911F099
:200F5C00DFF88146B8F80410308C728C01FB0909F08C8A4204BFB8F80810884202BFB18CB0
:200F7C00B8F80630994207D000090090B38CA9795208002011F0BCF8B07F88F80000708CE9
:200F9C00A8F80400B08CA8F80600F08CA8F80800284611F0A9F80220B07601E0B8F804900E
:200FBC00EA8B501C00FB09F040F6C41909FB00F100912B68D3F80CC06144DFF8D4C2D96032
:200FDC00DCF800E0B3499EF800A00B884FEA9A1ABAF1030F17D1DFF8C0C29CF80FE05FEAC5
:200FFC00CE7C48BF00230ED45B1C1FFA83FCBCF1010F11BFB5F812C005F59A7CBCF806C0DA
:20101C000CF2DC5C01E0B5F812C00CFB00FC4FF4C87EBCFBFEFC0CF1010CC5F814C00B80BB
:20103C00A86185F820204FF01C0BDFF870A2AB79DAF8000000F108021BFB03F3D1582A68C7
:20105C00116100F10801AB79D26868691BFB03F3121ACA50DAF80000AB7900F108021BFB80
:20107C0003F3D1582A68916000F10C02A9791BFB01F10C30525C02F0F00242F002024254EF
:20109C00DAF80000AA79811C1BFB02F200208852387908B90FF0A0FEDAF80000AA7900F1A9
:2010BC00100138791BFB02F240088854A879DAF800101BFB00F0084400214174387904281C
:2010DC0014D1A879DAF800101BFB00F001F110023B7A125C103142EA83020A54A979DAF89B
:2010FC0000001BFB01F1084420214174DAF80000AA7900F112011BFB02F2002088526849DC
:20111C00A8790A6802F114034FEA401C143253F80C00AB79D5F814C05B0100EB4C00D0506C
:20113C00B07E02280DD10A68AE7902F11403760114329859AB7998F800605B0119FB060082
:20115C00D0505548C27BD0075CD5DAF80000AC7900F108031BFB04F408301A59AB791BFB8B
:20117C0003F3A2F5A862C250DAF80000AC7900F108031BFB04F41A592B689A600098121AE5
:20119C001A610868AC7900F11403640114301A59AB795B0102F5F662C250387904280BD165
:2011BC000868AC7900F11403640114301A59AB795B0102F56162C2500868AB7900F1140273
:2011DC005B01D058C5F834016427364A0B68106BAE79006803F11C04B8F804304343B3FBC9
:2011FC00F7F3760109FB03F0A0F59660A0512E4B1878012830D10968A87901EB40110122DA
:20121C00CA7230E0042C0BD10868AC7900F11403640114301A59AB795B0102F56162C25055
:20123C0038790A68AC7904280CBF4FF4AA504FF4E66002F1140364011A59101AB8F80420AD
:20125C0009FB02F2A2F516729042BDD30821284610F046FF012015E0506A0968AA79407801
:20127C0001EB4211C872A979DAF800000F4A1BFB01FB29685844486007201070284610F090
:20129C002BFF0020BDE8F28F780E0020D10F00203C0F002050440020980C0020980E002073
:2012BC009C0E0020383D0100CC0F0020C80F00202DE9F84FDFF800830F460646F80B80F015
:2012DC008181BA4DBE4C2878B90F80F01C81B90880F01081DFF8D892DFF8D8A2DFF8DCB2B1
:2012FC00F90A80F08580390B54D2380907D2F80FC0F09E8127F080470BF094FE98E110F01C
:20131C0040FB05460FF08EF900283DD00EF01EFE002839D04C4603202070C94810F029FBAB
:20133C00284610F0D5FE08F0EFFB022000210FF067F902200EF0EEF9112007F019FFC1487C
:20135C00007820B955462868403010F02EFBBE48007810B90E2007F00BFF607B20B100201A
:20137C00607305200EF0D6F9002041462070B74AB1F91C00B1F91E106260884214BF022035
:20139C0007200AF045FC02E0284610F0A1FE27F00807B1E720B104200EF0BCF900202870C2
:2013BC0055462E680EF004FA40B1F0696FF4807100224FF0007384463046E0475E463068CF
:2013DC0058B12068006B8047326829680024801AC860C8683460000BC8609D489D49002239
:2013FC0010F0D7FA4C4627F400670220207083E710F0C7FA06460FF015F9002840460068A0
:20141C00009071D000286FD048464FF0040880F8008091498E48002210F0BBFA304610F0AA
:20143C0057FE874810F0A5FA2068006B804701242C705E46306040460EF086F9009800691A
:20145C005546416A2860C90804D3016A00220B464146984720460BF0B5FD2868447507F063
:20147C00AFFB2B68D3F8088040F60A0CACF10700421C454600E035466E6836B131888C4545
:20149C0003D0884218BF8A42F5D1002169606E7B64F303066E73009EF6683688B04219D081
:2014BC00B24217D01E8DBEB1D96203F12800418093F8342061F3030283F8342093F835201C
:2014DC0064F3030283F835206860687B61F30300687301E0CBF80010404610F013F801465B
:2014FC0020460FF08DF802E0304610F0F1FD27F480679DE009F0AAFC41460831086808B991
:20151C0027F0020794E0554A116841F08001116020B104200EF0FEF80020287010F031FA14
:20153C008146606D0068014604208847D8B1307DC8B14B480568B5B120683469006B8047ED
:20155C00401B30613069000B30613069A04203D2001940083061306940F6C41181422CBFBA
:20157C00B0F5967F3161484610F0B2FD0EF020F988B1F0696FF4807100224FF000730446AB
:20159C003046A04741460868002808BF47F0020701D00BF047FDB06900214FF080630446F6
:2015BC000A463046A04727F0005741E0B5430020E0430020A4430020A4410020AC4300205D
:2015DC008C01001010F0DDF9414618310E685EB306F1280191E80C004FF0E0450A241D4091
:2015FC0004EA020108BF00291ED106F1280191E8300006F1280393E8060006F12803AA4384
:20161C00A14383E8060010F063FDB16871B1002D08BF002C0AD03069B6F93C10B2682B46A5
:20163C0016462246B04701E010F052FD27F480471FB10C48394610F0C0F9BDE8F88FC04633
:20165C005C410020B4430020F63B01005179000040420020F58F000041090100CC210840F8
:20167C00A8430020704000202DE9F04F0646844DDFF814A2B078ADF14C0D002800F00681B6
:20169C007E49DFF800B2401F00F08480401E36D0401E20D00A3840F09D81B088B77BADF83A
:2016BC00080070898DF8127060B9ADF80E00B089ADF81000F188ADF80A103789ADF80C7033
:2016DC00012000E00020C5498DF8130002AA102003F0A2FF7EE1C249B288102002AB03F043
:2016FC009BFFC94834300FF098F8041C00F07281208909F081FC20460DF0A4FF6AE110208D
:20171C0003F08AFFC7B2B08880460FF04BF908281ED0C40004EB00146419D4F8D86204F516
:20173C0034747EB130460FF00DFF10B1304610F050F9304610F0C8FC30460DF083FF6068BE
:20175C000DF080FF40460DF0E7FB40460AF0E6FD87B905F5B27010F03CF900240721286BB9
:20177C002C7022460DF060FB0122584621466A700EF0C2FE002400942A7E514610202346A1
:20179C0003F04AFF234600936A7E5146102003F043FF1FE1102003F03FFF5FFA80F97078F6
:2017BC00002845D1778905F53478082000244FF6FF72A8F1180636F8181F8A4204D0401E0D
:2017DC0004F10104F7D128E03780032010F0E5F87060E0B1082101707068A0F8017024204C
:2017FC0010F0DBF8B06018B970680DF02BFF0EE00121E000009100EB0410404441680191DB
:20181C00784980684FF4FA7200230CF02FF9E000012100EB04104044017558460121002230
:20183C000EF06AFE05F5B27010F0D1F8012028702A7EB9F1080F0DDB00240094DFF8A8A15F
:20185C006A7E10202346514603F0E6FE234600932A7E09E00024514610200094234603F015
:20187C00DBFE234600936A7E5146102003F0D4FE286B072101220DF0D7FAABE0AD3E0210CF
:20189C00201B0020E4320020ED7401107078002840F0A080347AF7798DF80A40B27A8DF82B
:2018BC000970B0798DF80E20F37A8DF8080000248DF80F3008218DF80C40777A8DF80B401A
:2018DC0002AA8DF80D70204607F0B8FA47481830CCC80BA9CCC10DC805F1180681E80D0024
:2018FC000BAB1020434F424900963A4603F094FEC0B200286CD1072605F164030096DFF860
:20191C00F88001932A7E10204146234603F084FEC0B200285CD14FF01B0BCDF800B005F5C7
:20193C00847301932A7E41461020012303F074FEC0B200284CD1DFF8C4902A7E10209223A9
:20195C00494603F069FE00942A7E51461020234603F062FEC0B200283AD124483430B0E8B6
:20197C000C5004A9A1E80C500DC881E80D0005F1190004AB3A461E490090102003F04CFE70
:20199C00C0B228BB00961E4801906A7E41462346102003F041FEC0B2D0B9CDF800B019483E
:2019BC0001906A7E41460123102003F035FEC0B270B96A7E49461020922303F02DFE234613
:2019DC0000936A7E5146102003F026FEC0B208B10FF02FFC13B0BDE8F08FC046D95701100F
:2019FC00F9DC0110C5E8000065020210F034010099010110AF050100B13001101DEF01102B
:201A1C00841B0020281C0020781B00202DE9F04FC94C04F1170004F14401ADF1840D0CF0F9
:201A3C0033FA04F1CC000FF029FE0025C449C34EA0644FF47A722B46009504F5B27001914D
:201A5C0031460CF013F8BF4841F2883200952B463146019004F5D6700CF008F8BA492F4637
:201A7C0004F5E870282200972B468246019131460BF0FCFF2422082302A8294610F020FB3B
:201A9C00012604F592752846394602AA8DF8206010F012FB3246AD49E56404F5A070009602
:201ABC00134601970BF0E2FFA9483D46A94BAB4905700C221D60A84B256510201D6003F0A4
:201ADC00ABFD04F1D80015232A46A5490090102003F0A2FDA349102002232A4603F09CFD50
:201AFC00B0468DF87A701EA88DF87880DFF878928DF879804FF480628DF87B803346009015
:201B1C004946102003F088FD0DF1790040F20242334600904946102003F07EFD0DF17A00D7
:201B3C0040F20342334600904946102003F074FD0DF17B0040F2064233460090494610202B
:201B5C0003F06AFD894910204FF0FF3203F064FD874910204FF0FF3203F05EFD0EF078FB1A
:201B7C004FF0FF300BF058FF4FF002098DF87C8080498DF87D901CA80A68097902601FAA80
:201B9C0001712846314606F033FC304631460DF17D0206F02DFC04F5EA6BF02148465A4697
:201BBC0006F026FC0320F0215A4606F021FC042005211CAA06F01CFC04F154000FF0E6FBC3
:201BDC006D4904F19402102003F026FDE17D50200EF052FB69490246102003F01DFDE17DB4
:201BFC0050200EF049FB66490246102003F014FD64491020FB2240F6480303F00DFD6249C9
:201C1C00102003F009FD4FF6FD700AF087FBE17D50200EF031FB0097034604225B49019717
:201C3C00102003F0F9FC04F534702946C02209F04FFE4FF6FF7204F534710820401E21F849
:201C5C00182BFBD104F1B40004F1C00108F010F9002820636BD00CF005FE14A80FF08CFBD2
:201C7C008DF85C508DF8506008208DF86860484F1990484B189714A9169330460DF010F909
:201C9C00A063002852D0F020C4F8F00004F5CC67C4F8F87004F5AE60C4F8F4000CF048FED6
:201CBC000BA80FF06BF98DF82C608DF82D608DF840504FF0FF338DF843504FF496520C9367
:201CDC0035481192354F0E900BA90F9730460DF05FF9E06348B3E57025716571A571667294
:201CFC00A672E57225736673A67365746563257404F19C0004F1A80108F0BAF81221324611
:201D1C00E0620DF091F826480FF061FE50460FF05EFEE06B04F1400132460FF0B1FD206BF1
:201D3C00072132460DF080F802E0FEE7FEE7FEE721B0BDE8F08FC046201B0020C5E80000DE
:201D5C00E83400200F340020B534002019EA000014440020184400201C4400208D15021094
:201D7C00B9CB0000111C0210A13F00003D070100210B0100F0340100190C0100D96C021090
:201D9C002D6D02100D520210397F0110654C000000093D00E9F20000E3180100E719010072
:201DBC00841C00202DE9F84F0E46700688B029D5DFF834231078002110F07AF9040021D0AB
:201DDC00CA490868804705460FF0E0FC012804D00FF0D8FB6168884203D140F2014010F0CE
:201DFC0063F900202072201D09F04CF9C0490A6828469047204610F053F9FF2243212046E1
:201E1C0010F04AF9F0070BD50FF0BCFB28B100218160B848006800B1804786F0010060E163
:201E3C00B00710D5002006900021049000230290009005910393019101223C2010F028F9DC
:201E5C0086F002004DE170074FF01E08AA4F40F1A780002007908346A8480078002110F08A
:201E7C0027F9A74904468878FF2804BF00200EF0B3FFA07A0FF09EFA0546606D807A95F8E2
:201E9C002E91022818BF032805F5947A07D138680D3010F0F9F810B9386800F1070B51468A
:201EBC00484610F0EDF8A0B3606D807C3B68002818BF012804D11946504610F0DDF804E029
:201EDC0052464946184610F0D3F8FF2843D018FB00F83868404406225146C01D0FF096F804
:201EFC00386810F80810404400F1010AC01D079041F00209606DC17A01F0010185F82E111F
:201F1C000622606D00F10C0105F594700FF07EF821E05146484610F0A7F8E0B138685246B1
:201F3C00494610F0A5F8FF2815D018FB00F8386840440D3010F0A8F858B9386840440D30CF
:201F5C0010F0A2F8002801BF38684044407F012801D149F0020905F12C004B4601780691FE
:201F7C004189090905916A8C079904920122C088029140080390CDF804B0CDF800A00020D0
:201F9C00A97910F085F8D5F89C015E498842A8790CBF0021012110F063F886F00400A0E027
:201FBC00300610D5002006900021049000230290009005910393019101223B2010F068F89E
:201FDC0086F080008DE0F00445D54F4804683868C11D0D3010F040F82CE0207A012828D1B6
:201FFC00616D4878410724D504F13E000178022918BF03291DD14178386804F1380210F0A6
:20201C0037F8FF2815D018FB00F5386828440D3010F03AF868B938682844C11D0D3010F09E
:20203C001BF838682844C11D062204F138000EF0EDFF2468002CD0D13448426834480078D5
:20205C004FF480510CF096FC10B18E2010F000F886F4805045E0B00505D50FF030FB2D49BD
:20207C0001200860FEE7710504D509F0B0FB86F4806036E0700405D581200FF0E9FF86F423
:20209C0080402EE0B0042BD5234C206810B100200EF0A2FE4FF0FF30206000201F4C0FF0B4
:2020BC00D3FF216851F8202F684690471C48016B426B00910192C06A24681A491A4A0291DB
:2020DC000392ADF810006B462568184A18491948A8471949086003F067FB86F4005000E080
:2020FC00002009B0BDE8F08FD50F0020482E00204C2E0020480F0020680F0020D70F00207F
:20211C00780E00204DE501104C0F0020880E0020C70F00207C052043380F0020200F0020F9
:20213C00E82F00208115010091150100EC0A0020B8330020280800201C0F002010B50A4C37
:20215C00207838B9D8220FF22C01084808F002FB01202070002106488173012101700221A3
:20217C0081700321417710BD594400204C400021120400215D400021C74000218940002138
:20219C00E9400021074C657900F009F861796940490703D50121044A8903116070BD70B54D
:2021BC000249084780030021081104402D59000000F019F8E1B26C290BD0042801D00628B3
:2021DC0007D10E490978C90703D12178090700D402200B490A780C21114202D009498022D4
:2021FC000A6003B0F0BDF0B583B0074908470448017840229143017004480047C80000219A
:20221C003301002100E200E041160300231B030010B50C4988470C4A0621515E002907D0DB
:20223C00022905D0092903D0102901D0112907D17721C943884201DD002801DD7F20C0436D
:20225C0010BD0000A9650000800300212DE9F8436C4C6D496D4E20700020086009216C4873
:20227C0001700D21418040F20121818069486A490860377869480770FF2F7178417008BF5B
:20229C00FF29B2788270F378C370357905717679467114D1FF2A08BFFF2B10D1FF2D08BFA3
:2022BC00FF2E0CD15E490A7802704A7842708A788270CA78C2700A79027149794171594975
:2022DC000278594D594E5A4F0A7042784A7082788A70C278CA7002790A7140794871FF2095
:2022FC0028706870A870E87028716871002051490880F06B504940780870F06B01784F489F
:20231C000170F06B4E49807808704E49F06BC06C08604D49F06B90F83C0008704B49F06B2C
:20233C0090F83D000870F06B4069017948484A1E0270F06B4749C0783870F06B80690860E5
:20235C0008B90EF049FDF06B4349C069086008B90EF042FD0FF074FEF06B4049006A0860BF
:20237C0008B90EF039FDF06BDFF8F480406AC8F8000008B90EF030FDF06B3A49806A086020
:20239C0008B90EF029FD02F011FE07280BD107F0DBF820784FF4804107F036F9BDE8F243CA
:2023BC0000200EF019BD304801688847D8F800100A6881469047D8F8002052F8041F0020F0
:2023DC008847F068294A0188387801431180484627490A6890470C2126480FF02DFE2846BF
:2023FC000FF026FE0FF020FE2348002101604FF6FF7181804FF400512078BDE8F44307F0DF
:20241C0003B900BFC70F0020380F0020D04F0050700E0020B63F00503C0F0020400E00209D
:20243C00E8120050500E0020480E0020383D0100C40F00209E0F0020C60F0020D40F002014
:20245C00C30F0020304400205B4400205C440020CB0F0020200F0020240F0020280F002068
:20247C002C0F0020300F0020482E0020A00F00204C2E0020FC0D0020800E0020C848027826
:20249C00112A00D070472DE9F84FC64B187800210FF00EFE04000AD100200EF09DFC00207E
:2024BC000EF09AFCBDE8F24FFF200FF0B9BD04F14C0999F8000008B90121E172401C89F804
:2024DC000000C2B2E17DD9F804608A4220D2B07B401CB073D9F808104A7A520802F0010275
:2024FC0082F001021018B073A18BB06800EB8100B060607DC1060AD5628B99F80010A08B04
:20251C0000FB1121B068A63100EB8100306644E104F1280706F1900806F173054FF0000AF1
:20253C004FD1A17F6975E07FA875D9F808205278930710D5E27FD30604D5C91E697500F0DB
:20255C00EF00A875C6F874A085F800A00022A97D01F0FE011CE1900608D4F88B00B1F87E13
:20257C002876F88B00B1386AC8F80000D9F808004178C8070DD5F88B00281CBF386A002878
:20259C0007D0C8F80000B97EF88B814238BF08462876E07FC1060BD5B06B397800EB8100EA
:2025BC00B063A18CA63100EB81007067022002E0C6F874A0002028700022E17F01F0FC01A7
:2025DC00E6E0D9F808205278D30717D5A87D697D00F0F700891E01F03F0182075CBF891D7C
:2025FC0040F00200420644BF491E00F0BF00A8756975C8F800A085F818A0CEE0401AC0B222
:20261C000090900740F180800098012806F1400B44D1B06BA18C00EB8100B063A07F00F058
:20263C003F00A0776875801EE17FA975687501F0F701A975D9F8082053785A0704D5801FAE
:20265C00687501F0FD01A9750023697DFA7E9BF8000001F03F018A18521CC0F3800192B2A7
:20267C0000F003000FF0D8FC00F59B70A0841E21A08C90FBF1F18AB2A97D01F0FE012046C4
:20269C000FF0C6FC85F800A0F88B00B1F87E2876F88B00B1386AC8F800007EE00228B06BBF
:2026BC00A18C00EB8100B06326D1E07FC10706D5687D811F6975A87D00F0FE00A8750023A3
:2026DC00697DFA7E9BF8000001F03F018A18521CC0F3800192B200F003000FF09DFC00F5B4
:2026FC009B70A0840022A97D01F0FE0120460FF08FFC787FABF81A007A7F0098521C101A8A
:20271C00C0B2012814DD0BE0B06BA18C00EB8100B0637A7F0098E17F101ACA06C0B207D526
:20273C00A28CB16BA63201EB820171670221297098B3D8F8003097F81BC0E27FA17F63447B
:20275C00C8F8003052084FEA4208D9F808205278530748BF28F00208920748BF28F0080882
:20277C00012807D1387F2876C6F874A028F0100885F800A001F0C00640460FF045FC00F05B
:20279C003F003043687585F81680002208F0FC012046BDE8F84F0FF03BBCBDE8F18F00BF38
:2027BC00C80F0020D50F00202DE9F847A84CA94DDFF8A482A94FAA4985B02278002A4FF49F
:2027DC00A05600F0FA80072A14D0092A18BF0A2A00F0F6800B2A18BF0C2A00F013810D2AC7
:2027FC0000F0D180112A5AD19E4A107800210FF05FFC002877D0C5F80080426D5378016D97
:20281C00994CDFF86882DB065DD50B4641F2044EB3F802C0F4451FBFB3F81A90F145B3F853
:20283C0032A0F24506D041F20A4EF4451CBFF145F24502D1A7F800E04DE04FF0000E40F68F
:20285C0001044FF4806A4FF0180C0CFB0EFC03F1020939F80C90A7F8009019F47F4FF2D01E
:20287C00B9F1020F40F2EF80B9EB0A0918D0B9EB0A0412D04FF4406AB4EB0A0401D0A41E80
:20289C00012C40F2C980241FFBD040F2FA37E41BE8D0641E00F0D180E11E00F0C48086E0F0
:2028BC00B3F800C0A44540F0B7800EF1010EBEF1020FC8DD4FE0981C20F80C6010E001680E
:2028DC00002008710CE0488E388041F20441401A01D0801F01D12C603DE041F206403880DB
:2028FC00C5F8008037E062488078FF2865D0C5F80080604A12681C2111FB00F1931C5B5A6B
:20291C003B8013F47F4FF4D04FF400641B1B5A4812D00A3B012B14D940F6F6341B1B032BC4
:20293C0084BF5B1F012B0ED940F2FF341B1B0AD05B1E012B05D908E0921C41F20143535201
:20295C0001E0921C5652286005E000200EF044FA85200FF065FB49480078012106F054FEE4
:20297C002BE0092A53D146490A68508900284ED0444908780FF044FB002100200FF03CFBF7
:20299C000020207019E048883880022805D9801B03D040F20442801A39D1887B801CC2B245
:2029BC00B52AA8BF662088730020488005E000200EF012FA84200FF033FB06B0BDE8F0879A
:2029DC004888388010F47F4FFAD0B0F5A05FC8D041F6040290421AD12B4A92E8680002A880
:2029FC002A4A80E868002A4D2A482E6800680023CDE9002356F85C7F274B02AAB8472749DE
:202A1C000880DAE74888388010F47F4FFAD000200EF0E2F98520CEE7807B012818BF0428B3
:202A3C0000D03E805CE7807B01287FF444AF9A1C41F2024122F80C1052E75078C2064CBFE9
:202A5C00886CC86E3BE700200EF0C6F98320B2E7C80F0020480F0020756B02109A0F0020CC
:202A7C00940B0020D50F0020398B001041E70010780E0020980E002099D60010C70F00208A
:202A9C00440F0020CA0F0020AC3D010002000080200F00201C0F00201FD20000880F002000
:202ABC002DE9FE4F0D46074628687C68BE6800283AD00EF066FFD4F8BC10814601200190B7
:202ADC0008294FF0000088BF0198A968084202D16968084205D0019880F00100C0B20128C7
:202AFC001DD1D4F89400B8B9C4F89450C4F898500020C4F8A4000146C4F8A81094F8D030F0
:202B1C00C4F8AC10002BC4F8B0100CBF01980520D4F89810087411E094F8CC0038B90320A4
:202B3C00287448460FF0D4FA0020BDE8FE8FD4F898004561C4F8985006232B74D4F8980056
:202B5C000021416194F8D000012809D1022294F8CF308A49E06984F8D02019430CF046F969
:202B7C00686810F0704F06D128B104200CF0ECFD06200CF0E9FD02200CF0E6FD94F8CC0090
:202B9C00DFF8FC81002840F08A80F0692968884240F2858094F8CD0020B1D4F8C000B0F121
:202BBC00FF3F7CD148460FF093FAA868B246002814BF071C04F1C8076868031C14BF1E1C6E
:202BDC0004F1CA06D4F8BC0009282CBF4FF0020BDDF804B0DAF80000D5F800904168B9F119
:202BFC00000F41F00201416008BF191C32D04146A1F11008D4F8BC10092910D3D8F8001019
:202C1C004A6831889047D8F80000C168DAF800000A4669469047BDF8000038800FE0D8F889
:202C3C0000104A6831789047D8F80000C168DAF800000A46694690479DF800003870AB6845
:202C5C0003B15F44696801B15E44DAF80000B9F10109CFD1D4F8C450C36800221D4218BF53
:202C7C00019A102D18BF82F00102002AF4D111F0704F06D129B106200CF04CFD04200CF029
:202C9C0049FD02200CF046FDD4F89410002008740746C4F898703E46C4F894606BE0D4F809
:202CBC00AC00002840D1D4F8B00000283FD130790EF069FE4546D4F8A0002A683169406886
:202CDC005268006891FAA1F1B1FA81F1134602229847D4F8A0002A6871694068526800687E
:202CFC0091FAA1F1B1FA81F113460222984730790EF043FE30790EF048FE2046314602F07E
:202D1C00E1FE0021D4F89400C4F8B4100068B0F5806F03D92046314602F0D4FE31684868F5
:202D3C0040F00200486006E0D4F8B00018B92046314602F0C7FE3168486940F001004861B2
:202D5C0048460FF0C5F994F8CC00A0B9D4F8C01004F1740528460EF07BFB60B1D4F89400FE
:202D7C0003210174384603F0E1F8284600210EF06FFB002001900198BDE8FE8F000007805A
:202D9C00D40100102DE9FC470D469E4C0168E16241688068E0609C48A16080479B48E16A45
:202DBC000160A168DFF884A24160E168DFF8789281609749002DA046C16079D02E68F07889
:202DDC008DF8040030798DF8050001A80FF010F9B06808B18F490160F06808B18E49016017
:202DFC008E4C3078207070786070B078A070707984F83C00B079AF6884F83D003978E17019
:202E1C007B6863607A696261B968A160F968E1603969F26921616B68A2633769E7621868C6
:202E3C00A06170692063B0696063306A696820648F681FB900200DF0CFFF00E0276268685B
:202E5C00C06818B900200DF0C7FF00E060626868006918B900200DF0BFFF00E0A062686841
:202E7C00406818B900200DF0B7FF00E0E0613069E062776A6764B36AA364F06AE064E86830
:202E9C0081680F6807B9674F65494F600127C6684F7026B900200DF09FFFE86801E0494674
:202EBC000E6000685446EB68A0615868E06104E000200DF091FF012754464E4630685C490D
:202EDC004568621C04F114035020A84710B1306880688047D8F80800804782465548574994
:202EFC002061554B196000259D60DD609D611D625D62DD61524A5A60524818615249596185
:202F1C00284603F0CDFCDFF844913068C9F808508069A5608047C9F804004D4807704580C3
:202F3C0014200EF037FBFF211422A0620EF05DFDE01CFF2102220EF058FD14200EF02AFB77
:202F5C00444908600868142229460EF04EFD2846FFF77CF938460CF075F83F480188FF290A
:202F7C0006D1022101807822001D29460EF03DFD03200FF039F804200FF032F805200FF098
:202F9C002BF806200FF024F807200AF0DBF8334F0820387007F134000FF016F8397806205B
:202FBC000FF00EF80BF054F82A3705200A213A460CF070FE38B12846C0F10901401C07F8A1
:202FDC00011B0A28F8DB3768254909200DF106026B467E68087010202946B047A06AD8F8F9
:202FFC000C10E2690A270A309DF806307F1E00F8013BF9D1921E5046E261884701F046FDF1
:20301C00BDE8FC87402E002001700010AC0100209421010019000100C90F0100E82F0020B0
:20303C00183400203FF20000BC3400201032002019070100F90F010034410020BD68000081
:20305C0059EA000081CF0000EDB50000F0430020B8340020484400206C2F0020542C0020B9
:20307C00604400202DE9FC47040045D0DFF81C9299F80000092818BF0A2804D00B281CBFCC
:20309C000C280D2801D12120FDE0A07800210FF00FF8050008BF4220F6D0A0787C49087033
:2030BC0005F14806F068417801F01201022902BF706900280C2012D0687AE8B1A97B0129D7
:2030DC0004D1B4F8030008B1812815DA6078402812DA28460EF070FFB06808B90720D2E046
:2030FC00B46105F12207A87B00281CBF0128042813D16848007808B91220C4E066494A78F1
:20311C00824208BF0920F8D07A7F05F13801802004F094FC08B10B20B5E0607808B9112088
:20313C00B1E02078DFF874A1012879D1287A0021012829734FF00A0811D19AF8000040213D
:20315C000CF0A4F9B4F8030008FB00F140200EF02FFF010015D1B1696079487192E0012065
:20317C002872E972697306F067F868604C494161F0684178C80605D528460EF015FF0100D4
:20319C000BD080E0002038800EF00AFF85F8210028460EF001FF010075D1F0684178C807C8
:2031BC001CD505F14207B98800291CBF3068002814D03A788A4211D20F200EF0E9FE68B14C
:2031DC00F06801788DF80010B888ADF801000F2039788DF8031069460EF0D6FE99F80010ED
:2031FC0000294FD12F4A107800281EBFF168487810F0030F03D02C4908680EF0C1FE112093
:20321C0089F8000001202872B4F8030008FB00F140200EF0CDFE010035D100F079F931E010
:20323C00287A80B32149224E0868804704469AF8000040210CF02AF9002028720EF0A6FAD8
:20325C00012804D00EF09EF96968884211D10CF0F1FC40F201400EF027FF1649164808609E
:20327C0001219AF8000006F0CFF931682046884708E028460EF080FE3168204688472846E4
:20329C000EF00EFF0020BDE8F68700BFC80F0020D60F0020D40F0020780E0020C70F00206B
:2032BC00A1410000880E00206C0F0020482E00204C2E0020480F002041E700102DE9F84191
:2032DC0085B0804611F8010B0027032808F1660508F1F40600F0A9800F2840F01181707A1D
:2032FC00894F820750D508784A7808F5A47400EB02202080CA78887800EB022060804A7936
:20331C00087900EB0220A080CA79887900EB0220E080087A20728A7A487A00EB022060816A
:20333C000A7BC87A00EB0220A0818A7B487B00EB0220E0810A7CC87B00EB022020828A7CC8
:20335C00487C00EB022060820A7DC87C00EB0220A082487D897D00EB0120E08208F5AA7054
:20337C00049060890390207A0290B8F808000190E0880090A3886288218840460EF0F8FD7D
:20339C00B0B1707A41070DD40F2188F8191140460EF0EAFD002804D138784FF4804106F0B1
:2033BC0033F9ACE01E220F2140460EF0D9FDA6E008F1860061888180A188C180E18801812B
:2033DC000221017000214180B8F83410C91DE983B8F832208188B1EB520F02BFC188B8F853
:2033FC003420914202BF0089B8F83610B0EB111F19D0287C012804BF697C0F2905D0687D2F
:20341C0018B10F21A976FE2176E0FC2140460EF0A3FDE0880090A3886288218898F8060076
:20343C000EF096FD6BE0102166E0707AC2070FD430781A210128717005D1FF220D214046EF
:20345C000EF082FD5CE00D2140460EF085FD57E02F70AF7101203071082208F1B0000EF0DA
:20347C006FFD0146022208F1B8000EF069FD08F1A8040146082220460EF062FD07460821F5
:20349C0020460EF059FD08F19C040422394620460EF056FD042120460EF04EFD08F1A000F4
:2034BC000EF046FD08F198000EF03EFD1748018841F0800101803078012805D1FF220421DD
:2034DC0040460EF041FD1AE06E7C0F2E18BF142E03D00E2E18BF0C2E0DD12F7C40460EF0A7
:2034FC001FFD042140460EF037FD012F12BF3146AE76FD2100E0042140460EF02DFD012722
:20351C00384606B0BDE8F081C70F00209C0F00202DE9FE4F854D6E681EB9BDE8F74F0EF0B9
:20353C00FBBC3078DFF808B2824FDFF80C9201281CBF0228042841F64C5804D0402818BFF1
:20355C00802873D0EAE00EF021F90028FAD0307803F0B8FF82460EF0DBFC044699F80100C5
:20357C0000283CD000F000FA0DF024FF0190016800914E6894B1504608F03CFF02280DD09B
:20359C009AF800100129DDD118B90EF0BDFC4044A0600120A8701120387045E0009967480A
:2035BC000A78802A0AD108233B700078012870691ABFDBF824100978012109E0072139705B
:2035DC000078012870690EBF0121DBF824104978C17201988179009889F802109AE0BAF188
:2035FC00000FAFD09AF80000564507D1012801D11CB998E000200DF0EFFB15E00128A1D13D
:20361C00002CF6D00EF080FC0146A06801F5C241A8310EF075FC18B90EF076FC4044A060CD
:20363C00112038700120A870504673E099F80100002856D000F098F90DF0BCFE8246DAF8C1
:20365C0000000190466899F802000DF0B3FE02900EF096F810F0070F1FD0A87803F032FF67
:20367C0000900EF055FC040017D00199009808F0C1FE022811D000990A78012A0AD118B97E
:20369C000EF042FC4044A060112038700120A87000983FE000200DF09FFB029850451ED0B1
:2036BC00019926480A78802A0AD108233B700078012870691ABFDBF824100978012109E023
:2036DC00072139700078012870690EBF0121DBF824104978C1729AF8060089F802000198E5
:2036FC0018E00EF04DF810F0070F1CD0A87803F0E9FE06460EF00CFC04463078012812D127
:20371C008CB10EF001FC4044A060112038700120A8703046BDE8FE4F06F044B9BDE8FE4F72
:20373C0000200DF059BBBDE8F78F00BF08440020383D0100C80F0020780E0020CC0F0020D8
:20375C002DE9F0470646B5682968C8697468086240083CD30EF015F90346D4F8940060BB68
:20377C002968486820F0020048602968486A20F003004862D4F8A0002A6941686F69096841
:20379C0047EA0200C862D4F8A0006E6941682A69096846EA0200C1F804052968486920F07A
:2037BC000100486128680121016228460CF02CFE18460EF08DFCBDE8F087032101741846A2
:2037DC000EF086FC304602F0B1FBBDE8F087D4F8A00041682A696E6909684FF000080227BD
:2037FC00C14646EA0200C1F80405D4F89430002B00F0A780D4F8A0002968D5F814C040689A
:20381C00D4F8B460D0F800E066B904F1AC06B1F1804F0CBF4C4A4D4AB1F1804F0CBF4C4805
:20383C004C480BE004F1B006B1F1804F0CBF4A4A4A4AB1F1804F0CBF49484A48DEF804A500
:20385C001AEA0C0F11D0806810F0070F0DD1D3F800A0D4F8A400824507D15B692BB9486A9C
:20387C0020F002004862CEF804C5906810F0070F64D13068002861D00EF083F88246D4F8A0
:20389C00B4303168D4F8A800002B0844C4F8A8000CBF20204046C4F8B400C6F80080D4F835
:2038BC009410D4F8A4200868904240D8D4F8A82090423CD881F81080D4F89C0004F1400638
:2038DC0030B9D4F89410C4F89C10D4F89C0007E0436953BBD4F894104161D4F894104069D7
:2038FC004969C4F89410C0F81490D4F8B40000280CBFD4F8AC00D4F8B000C4F8A400D4F8AB
:20391C009400C4F8A88028B92968486A20F00300486203E02046294602F0D4F850460EF028
:20393C00D7FB30460EF04BF808E01846D0E72046294602F0C7F850460EF0CAFB7F1E7FF4F6
:20395C0054AFBDE8F087C04630180020001900204018002010190020301A0020001B00201F
:20397C00401A0020101B00202DE9FE4FDFF8F88198F8011011B900200DF02EFA0EF0C4FA47
:20399C0007464FF0000907F6C4170026774D784C11E030460DF00EFD417951B12968827939
:2039BC0001F8092009F101015FFA81F939460EF0A3FA761CF6B220788642EADB98F80100F0
:2039DC00814505D000200DF007FA82200EF028FB98F80100012840F0A880002601E0761CA4
:2039FC00F6B22078864280F29A8030460DF0E2FC074678790028F2D02868B979027891428F
:203A1C001CBF00200DF0E8F9B87986E02868C05D0DF0D0FC00684068DAF8081082689142ED
:203A3C0004BF34467F1C00F08E8090E0296808780123F6B24FF4D07211E0D8F8047007F591
:203A5C00B17CCF5CBE4612FB0EFE02FB00F43CF80EE03CF80440A64538BF38465B1CB3427E
:203A7C00EBDB06464FF6FF700EF042FA8246F0B20DF0A0FC4FEA5A010068446840F6C41075
:203A9C00414301F5A06000270091019016E0F0B20DF090FC01680A78802A03D1DBF81410C6
:203ABC00009A4A6101680A78402A06D131498079096801EB40110198C8617F1C4F4550DA3D
:203ADC002868C05D0246F1B29142F6D04FF4D071D8F804304A43991803F5B173C9899A5A71
:203AFC004B08934202D2891A8945E6DA0DF062FC4FEA5A020068D0F804B0A068DBF80810B6
:203B1C0040F6C413A1F6C41113FB02000EF0F8F90028BCD02868C05DC0B2BDE8FE8F0020EC
:203B3C000DF05AF982200EF07BFA98F80110286808F084FB286800780DF03CFC0024016892
:203B5C00D1F804A00127661C4F45FFF65FAFE4B2002C1CBFF0B200287FF468AF286806789C
:203B7C0080E73046D8E700BF780E0020340F0020D40F00209C0E00202DE9FE4F764D287832
:203B9C00002804D0401E03280CD9801F012840F2E1800A3840F0D880704A107800210EF019
:203BBC0087FA814609F15006DFF8B48170686D4F4178C80647BF3268906C3168C86E062297
:203BDC00016801F10804A11C01A80DF01FFA22781E2402F00F01C2F3801003298DF8000012
:203BFC002ED101A90EF04CFA002828D07068807C012818BF032822D1396801A80EF03CFA2C
:203C1C00FF281CD014FB00F43868025D2044411CD8F800000EF068F953490A7890420ED0B5
:203C3C0038682044C11DD8F8000001AA0EF058F938682044062201A9C01D0DF0E7F976E0D6
:203C5C0002F00F00052872D19DF800004FEA521A01A90EF015FA40F2014B08B37068807CD9
:203C7C00022818BF032862D1396801A80EF004FA0546FF2D5BD0584614FB05FB0EF014FA28
:203C9C0038685844C11DD8F8000001AA0EF028F938685844062201A9C01D0DF0B7F919E0C3
:203CBC002878022843D19DF80010386801AA0EF0DFF90546FF2D3AD0386814FB05F10844D2
:203CDC00417F012903D00D300EF0DEF978B358460EF0EAF970684178C8062FD5386814FB3D
:203CFC0005F40622005D89F83F0038682044411C09F138000DF08AF91C488178480606D5D1
:203D1C005FEACA7003D4306841F20A4102E0306841F204414180418341861548154A01809C
:203D3C001548164908600121107805F06DFC70684178C80602D53268906C01E03168C86EBF
:203D5C0001680020087105E000200DF045F886200EF066F9BDE8F78FC80F0020D50F0020DD
:203D7C006C0F0020680F00205B440020C00C00209A0F0020C70F0020398B0010480F002040
:203D9C002DE9FE4F0E468246307AC10693461C464FF000090CD558460EF09EF8030000F08E
:203DBC00E9800A223146504698475FEA00094DD13078DDF838800D9D0C9F02281AD170687F
:203DDC000178407801EB002189B24FF42052891A012910D9891E3AD0491E14D0FD397BD066
:203DFC00491E00F08280491E6ED0491E74D0491E00F09680ACE0002D2AD1F0680178398053
:203E1C000278416888E0002D22D101203880F0680178217000217089401C80B20EF058F8AA
:203E3C00398860B10278921C51183980418961704189090AA17002784168E01C6DE0091D2F
:203E5C00398004220021601C0DF0CFFD94E0002D67D1F0680588042139802570290A6170CC
:203E7C0028460DF102010EF033F85FEA000821D0D8F80C50BDF802204FF6FF766B46314667
:203E9C000EF022F850B998F80030D8F804203C4802210EF015F808B9ADF8006028780228EF
:203EBC000AD169680222201D0DF0B0F83888801C388001E0ADF80050BDF80000A070BDF8D0
:203EDC000000000AE07057E0002D2AD1F068016850460DF0E7FA02E01DBBF068008802211B
:203EFC0039802070000A607046E0F0680DF07FFD80B2A842B8BF4FF007093DDB854208BF04
:203F1C00002205D005EB08028242B4BF4246421B3A8092B2F068411920460DF077F82BE0EB
:203F3C0015B14FF00B0927E0F0680721398001782170417861704188A1704188090AE17071
:203F5C0001792171C1886171C088000AA07113E058460DF0B1FF5FEA00090BD00F98029017
:203F7C00CDF8048000953B46224631465046C847814601E04FF00E094846BDE8FE8F00BFC5
:203F9C00C03701007FB57E4D03461446084600261946A1F58062132A04D9183A32D0921E02
:203FBC0022D015E0DFE812F0E0001400D900D200CA00C100BA00B5001400AA0014001400B6
:203FDC0099008E00140014006A0051004A003600092907DA022805D1084621880DF0F0FF45
:203FFC000646C9E00226C7E0002840F0C4800EF0A7F828B908F069FA06460DF0EFF9BBE0A0
:20401C000C3584E0012840F0B680002C00F0B3800D3581E0602800D13CB9012840F0AB808C
:20403C00002C00F0A880093576E005F1A000214660220CF0EBFF012068729DE0012840F056
:20405C009A8020780DF034FF96E0012840F093802078032880F28F80002800F08C802B46A7
:20407C0003F1080108702078022818BF301C02D11020D87101200DF017FF7DE007287AD173
:20409C00611C684606220CF0D1FE2178684602AA06F090FCA0B90EF053F848B99DF8080031
:2040BC0004F03CF806460DF099F909F0D1FF63E09DF808002A46012102F1200529545BE0D6
:2040DC00342659E0012856D1A87A21780028A97252D1207801284FD1E7E7297A01284AD12A
:2040FC00022904D02078062801DD112804DB022941D1207810283ED1E8713DE000283AD124
:20411C000EF01EF810B90DF073F8CBE70B3501211AE001282FD1AD1D217815E001282AD18B
:20413C002178012927D86D1D0EE0102823D128462146102240300CF069FF1DE001281AD111
:20415C002178012917D82D1D297015E0012812D1217805290FDAED1CF6E701280BD1217879
:20417C00012908D8AD1CEFE7012804D121780329B8BF6D1CE8DB1826304600907FBDC0466E
:20419C00542C00202DE9F84F7B4A8246107800210DF08EFF9AF80010044601291CBF002035
:2041BC000CF01AFE14B900200CF016FE04F14C0B0025DBF808004178DBF80460C8064FF485
:2041DC007A674FF00B0841F64C5929D506F1680005808570C57005714571C58005818572BA
:2041FC00C5727567A07B012819D00DF08DFEB16848440DF085FE002811D00DF085FE4844A1
:20421C00B0600DF04DFE0B2290FBF2F2B16808FB12081FFA88F007FB0017B76027617CE0B3
:20423C0006F1940005808570C57005714571C58005818572C572C6F8A0500DF065FEB168DC
:20425C0048440DF05DFE88B10DF05EFE4844B0600DF026FE0B2290FBF2F2B16808FB12083D
:20427C001FFA88F007FB0017B760276106F14007607DC1064FD5307CA27D521CC0F3800166
:20429C00002392B200F003000DF0C6FEA0831E20A28B02F59B731E2193FBF0F001FB10306B
:2042BC00C0B208B1C0F11E008C46801800F59B7002F5967293B293FBFCFC01FB1C31608388
:2042DC00A283C9B209B1C1F11E018A18A28392B2E17D491E4A4312FA80F06083618BB068D7
:2042FC00A63100EB810030660220F877618BB06800EB8100B0633878012802D1B06B0C30B2
:20431C00B063A18CB06BA63100EB81007067022086F8730001E03566FD776168DBF8040069
:20433C00486016488861DBF808205078C3065CBF10238B615078830703D5886940F400203D
:20435C0088610F4B187800281CBF527812F0030F03D0886940F4802088618BF80050DBF866
:20437C000800017E11F0300F04D05046BDE8F24F09F014B9BDE8F18FD50F00200200008099
:20439C00880E00202DE9F0470E46814699F80610ADF1280D0DF1260206F00CFBDFF8AC8142
:2043BC00E0B97069002837D09DF82610062004AA11FB00F023301021C0B20BF06BFC58BB3A
:2043DC0004A8FF2110220CF09CFD28BB99F80600494600F001000DF05FFD1DE040460A2727
:2043FC00C246002500F150042046FF2106220CF088FD78B97F1E04F1080405F10105F3D171
:20441C009AF80D00002804BF0A208DF8260007D09AF82A508DF826509DF826000A2801DB7A
:20443C0015208FE09DF8261006204A4611FB00F505F120000821C0B20CF022F89DF82600B8
:20445C0009F0BEFF04A8FF2110220DF0CEFA9DF82600102104AA7030C0B20CF011F89DF881
:20447C0026004946082208EBC00050300CF0CEFD726944467AB1107C02F11101002300F013
:20449C0001000DF005FD72692AB105F123001021C0B20BF0F5FFB2682AB105F121001C2156
:2044BC00C0B20BF0EDFF32692AB105F122001C21C0B20BF0E5FFF26862B105F124001021B3
:2044DC00C0B20BF0DDFFF26825350421E8B210320BF0D6FFA07A08B10BF0A6FDE169B588FA
:2044FC0061B904F110001A4A00904FF6FF71022301200DF0C9FC0146E16111B308A8009043
:20451C000026019602270297FF230393228A28460DF12203FFF734FC58B99DF823109DF877
:20453C002220E06912EB012204D04189284609F09BF9E069228A4FF6FF7133460DF0C4FC3B
:20455C00E06100200AB0BDE8F087C046542C0020BA3701002DE9F04F8246ADF11C0D02F09A
:20457C0053F85C48007809F0B5FC5B4D0024012806D90C3804D0401E0ED0401E09D006E0C9
:20459C000CF0D8FC022804BF01210C1C06D0296806E005211F2401E0032107242846016043
:2045BC004E4AD068C0F38150012804D112680120120E904004430CF09DFFDFF828B1DFF89C
:2045DC002081FF2240185B46401E471CC8F800007F1E03F8012BFBD1DAF80020002702F0E8
:2045FC00FF03FE2B1CD0D4463B46012602F0FF05FF2D0ED0A84205D3A94203D806FA05F544
:20461C002C4201D0022062E002F0FF022F430BF802305CF8042F5B1C02F0FF05FE2DE7D16A
:20463C00092004F06DFE3048C0F800A0374801210BF0B8FC364D00264FF00109B04609FACB
:20465C0006F0044214D1074207BF06F0FF0141F4C0411BF806005AF82010244804F022F8CD
:20467C00F0B24FF0FF310CF047FBC5F8008001E0042028601A480068761C2D1D8642DED9E0
:20469C0004A80CF017FF1A4C20781B4A05901948102104AB0AF012FB68460CF04BFF606844
:2046BC00174902901548CDF80C806A460AF052FC144951F80D0C20F4F85040F4005041F86E
:2046DC000D0C114AC1F8FF9F4046C2F8009007B0BDE8F08F5F44002034340020A84F0050B6
:2046FC0030340020C44100202C440020007FC767503C010078420020310D0100D8400020DA
:20471C0071E700000D3009402C00094094420020483F00207CB56D4D044628680E4628B993
:20473C004FF0FF30002108F0C9FD286000213CA30A460BF0E6FC20463DA3801E08D0801E01
:20475C0061D0401E4CD0401E37D0401E22D00EE02868012E05D000210A460BF0D2FC37A347
:20477C0057E000210A460BF0CCFC39A351E0286800210A460BF0C5FC2868022100223AA336
:20479C000BF0BFFC01208DF803009DF803000028FBD17CBD286800210A460BF0B2FC28689F
:2047BC000221002236A30BF0ACFC01208DF802009DF802000028FBD17CBD286800210A46AF
:2047DC000BF09FFC28680221002232A30BF099FC01208DF801009DF801000028FBD17CBD83
:2047FC00286800210A460BF08CFC2868022100222DA30BF086FC01208DF800009DF80000BC
:20481C000028FBD17CBD286800210A460BF079FC29A32868022100220BF073FC7CBDC04694
:20483C003E3E3E535441434B20415353455254002A2A2A4552524F522A2A2A003E3E2049CF
:20485C004E5445524E414C204552524F522100C03E3E20494E5445524E414C204657204582
:20487C0052524F522100C0463E3E2044454641554C54205350494E4C4F434B2100C046C0A5
:20489C003E3E2057524F4E47204150492043414C4C2100C03E3E204943414C4C2054494DB1
:2048BC00454F55542100C0463E3E204943414C4C2041424F525421003E3E204F5554204FBB
:2048DC0046204D454D4F52592100C046441B0020F0B56B4B04686B4D6B48617D1A68ADF1A7
:2048FC00140D491E0E295BD8DFE801F060A9084B4D9E124B1F8D2F4B7F334BC02069036877
:20491C00806829685B684068CC69C118A04735E021692D6888680B68E96940685B680D46FB
:20493C000021A84721698A681FE020692B6801685C6D4A6980684D6840680092CA68019233
:20495C0002958A680B694119E0E720690368C068D7E721692D68C8680B68E96940685B68C4
:20497C000D460021A8472169CA680446096850684A680021801806F0ABFF204609F024FCFF
:20499C007BE0002079E0206940684068017811F0070F05D1C17F31F07F0001D1C80902D291
:2049BC004FF0FF3069E06FF0200066E020692A6841680368526C486859689047002818BF2B
:2049DC006FF0040059D1226929685068CB6A12684068D168526898472868406A8047082800
:2049FC00FAD0286840688047C8E7216904460868256D4268ED6D009201934E6889684968CB
:204A1C00826803692BE0266904463068B168256D0769426849682D6A009747690197029228
:204A3C00039376688A1819E0216904460868256D4268ED6D009201934E688169E0E721695A
:204A5C0004460868256D02692D6A0092426901924268029203934E68C269816983687068BA
:204A7C00A8472068006A014613208847206800690146132088476FF01F0005B0F0BDC046D0
:204A9C00C43F002000020010B00100102DE9FE4F664D654C664F2868626A066904F12003A5
:204ABC0039460120B04710B1286880688047DFF88481DFF884910BF0CFFC5FEA000B03D08E
:204ADC0005F096FE4FF0FF3B002637E00098216910F8062CA0F10C07032A02D171B3884788
:204AFC002CE0A06A9DF805C00A213246401E10F8013F9C4506D0491E02F10102F7D14FF0C6
:204B1C00FF0A01E05FFA82FA2868BAF1FF0F00F1080011D038790AF081FCB979012904D03F
:204B3C00022904BF0099887001E000990870009950460BF0C7FF01E0006880472868C3692C
:204B5C000DF105016A4601A898470028BED0D9F800007700C35B23B9761CF6B20A2EF8DBC0
:204B7C0022E00A2E20DAD8F808008047D9F80010002231F807A0CA53D8F80C1088472F4824
:204B9C0050F8262026705146304690470646FF202070D8F808008047D9F800107A5A164349
:204BBC007E52D8F80C1088470BF056FC0746BB451AD0D8F8080007B9214FE169B94238BF86
:204BDC000F1C804782462868016A206A8847626A286817491B4B521C6262C6683846B047B4
:204BFC00D8F80C1050468847A7682968606914318FB9D9F800000A270026835B33B10969F6
:204C1C00606988472968D9F8000014317F1E06F10206F2D103E0096988472968143109686F
:204C3C004FF0FF30884746E710320020BC34002071F40000402E0020484400202C38010078
:204C5C008EC2F528303200202DE9F0431F4615460E468046ADF1140D0DF012F9022808BF6E
:204C7C00122000F0C680042D19DA0224012D18BF032D16D19FB1012D18BF032D11D1384665
:204C9C00002105220CF03DF938460622FF210CF038F920B9787920F03F00C02801D0022097
:204CBC00A7E04046401E0FD0401E012809D9801E0AD0801E05D0801E012802D9001F03D0A6
:204CDC0096E0002C40F094800420012104AA0AF0E1FF002831D19DF81000FF2803D09DF8A6
:204CFC001000854218D19DF81000854225D1012D18BF032D21D168460021062206F0E8FD7D
:204D1C0006206A4601460AF0C5FFB0B96846394606220BF0B7FE80B9002140F209400A4609
:204D3C00FFF730F90446002140F21A400A46FFF729F9204318BF1E205BD12F48012D05701B
:204D5C00814618BF032D02D138460DF095F82B4C062066700DF08CF8C0B200B96078207007
:204D7C0040460DF081F899F80070041C40D168460021102206F0ACFD37F001000DD00DF047
:204D9C00DBF9FF2110220CF0BCF8012809D1022010216A460AF07EFF18B9002069460DF007
:204DBC005FF80DF0C5F9002110220CF0AAF801280FD1032010216A460AF06CFF48B96846B3
:204DDC00FF2110220CF09DF818B9012069460DF047F80DF0ADF900210DF03EF80DF0ACF95E
:204DFC000DF036F80DF030F80DF02AF80DF024F8E0B205B0BDE8F083A90F00208430002004
:204E1C0001282DE9F84F40F0B9806648B438D0F8B010012940F0AF8081460220C9F8B00082
:204E3C000BF066FA01200AF0DDFA5FEA000805D00120C9F8B0000BF06FFAA1E00CF0B9FDBA
:204E5C00009011200CF060FC00280CBF0025012510200CF059FC08B145F002050F200CF03E
:204E7C0053FC08B145F00405474CA06A0068014601208847012805D099F8B400012818BF51
:204E9C00002703D1002006F0A3FC01270CF036FCDFF8F8A040080AD20026206A806801467E
:204EBC00504688478346BBF1040FF6D000E00126304600214FF0FF3203F0B6F8012E0ED067
:204EDC00BBF1010F05D1206A4068012102465046904735496C39086840F003000860206865
:204EFC0040690146284688470B200CF00DFC284E30B12068C06A3146091D024608889047E4
:204F1C000A200CF001FC28B12068C06A31460246088890471F4903200126C9F8B0001E4B15
:204F3C000E6000221A602068406B0146284688470128F8D1194C206804200AF053FA0546FF
:204F5C00174806602068012F02D1304606F040FC0CF0BBFB08200AF045FA07460098C9F884
:204F7C00B0600CF065FF0BF0D7F957EA050018BF4FF0FF3804E06FF0040801E06FF00108AF
:204F9C004046BDE8F88FC046B801001000400340C634010028200860800104432C200940E9
:204FBC000C400940082E00209022084038B5564D68790CF0EFFA5549002808602BD000224F
:204FDC00026002730868C2610262A8790CF0E2FA4F49002808601ED000220260C272002000
:204FFC000A68107405200B685874002009684861E87A0CF0CFFA4749002808600BD0464C4D
:20501C0021782878891C10FB01F080B20CF0C2FA424A0028906072D0207800283ED069880B
:20503C0011FB00F080B20CF0B5FA3D490028486065D020780CF0AEFA3A49002808605ED073
:20505C0020781C2110FB01F080B20CF0A3FA364A0028106053D0207840010CF09BFA334977
:20507C00002808604BD0207800010CF093FA30490028086043D0207800010CF08BFA2D499B
:20509C00002808603BD02078302110FB01F080B20CF080FA284A0028106030D0274C284DDA
:2050BC002178287800EB4100C000103080B20CF071FA2449086010B300F108014160287803
:2050DC00217800EB4100C000103080B20CF062FA1D49086098B100F1080141601E212078DC
:2050FC00401C10FB01F080B20CF054FA174A106028B106200CF04EFA1549086008B90720FE
:20511C0032BD002032BD00BFC8330020500F0020540F0020440F0020D40F002008440020B7
:20513C00780E0020340F0020980E00209C0E0020A00E0020A40E0020A80E00205C44002084
:20515C005B4400206C0F0020700F0020680F0020400F002060480178042900D870472DE941
:20517C00F84FC91F012902D90A3931D0AAE0DFF86CA19AF80200FF282AD00CF01BF983469F
:20519C000BF16C0778680CF04FFE804698F8040003281DD1D8F80800047814F0030404D1B4
:2051BC007868BDE8F24F0CF03BBE4578032C00F102090BF2171610D05DB1387800281CBF65
:2051DC009BF8F410012904D13D2070700120307080E04348017801297CD09BF8940060B30B
:2051FC002D1FEDB24B462A46214658460CF014FE48B93D20707001203070BDE8F24F39482E
:20521C0000680CF005BE38490868804700904FF4D0709BF80620DAF804104243881800219B
:20523C0080F841110BF59E7001688079490807F0EDFA2E4900980A6890470020032CC8F882
:20525C00080018D02A48416909788A0709D541690878C1074CBF03200020401919F800008C
:20527C0000E08120387223469AF802002A4649460CF0CAFD1DE099F800001A2803D21D491D
:20529C00095C8D4205D0B070072158460CF064FE0CE011480178082908D049465846FEF7BC
:2052BC000DF818B9494658460CF0AAFD484608F0F5FE78680CF0B4FD41465846BDE8F44F19
:2052DC000CF09ABD00200BF087FDBDE8F24F86200CF0A6BEBDE8F18FC80F0020780E002012
:2052FC00D20F0020680F0020482E00204C2E0020383D0100783D01002DE9FE4F9B461546FF
:20531C000C4606460CF03DFB0CAFDFF86C910290D9F800000196B04208BFD9F804006FF029
:20533C00010828B178300CF0ADF8002840F092800BF01AF8061C00F0988052480CF019FBDB
:20535C00DFF838A1F460BAF91C002B79401C86F83E306FF31F30AAF81C00C6F808B0BAF8DB
:20537C001C00019AB0874648326197E80C0020210027B846776319403763104086F83F70C7
:20539C0006F1180383E8030006F1200282E88001A868B0632D6805B17563207B00F00F008D
:2053BC00022804BFA068306320460BF083FD00886FF30900B0F5305F1CBF0222101C06D13F
:2053DC0096F83F10082041F0100186F83F1006F1180191E80C003D4606F11804104345EAF0
:2053FC00030184E80300D9F8201001985446884207D199F82400410824BF00F0FE0089F8F8
:20541C00240004F108000090216962695346304608F0AAFB10F1020F13D010F1030F10D0D6
:20543C0096F83F002168B6F93C80019D40F0800086F83F008E4285F89C7016D107F0F2FD5E
:20545C0013E0B4F91C10804601F6FF716FF31F31A18301E06FF0020899F8240040F004002E
:20547C0089F824000198C9F8200002980CF030FE4046BDE8FE8FC0460C410020A4410020FD
:20549C00FFEFFF9F5C410020F8B5074661485F4C001DC26A0168B7F5C067C2F30722C4F83A
:2054BC008C70C1F38441C4F89020C069C4F89410C0F38120C4F8A40000F0A38094F8AC6007
:2054DC006EB9C4F8A870D4F89400C4F89C00D4F89060C4F89860D4F8A450C4F8A050D4F855
:2054FC00A800D4F89050002854BF02236FF0010304F19C02116800EB4000C018431000EB2C
:20551C00937001EBA0011160D4F89C10C4F8985000291CDD1E293DDDD4F8A00030B934291D
:20553C00B4BF15391E21C4F89C1025E02A29BABFD4F89C000B381E20C4F89C00D4F8980071
:20555C003E28D4BF401C3F20C4F898001FE0D4F8A000032812D011F10A0FA6BFD4F89C00C7
:20557C000B300120C4F89C00D4F898000028CCBF401E0020C4F89800032009E011F1140F41
:20559C00A6BFD4F89C0015300120C4F89C000020C4F8A0004FF08057D7F8A401B4F898100A
:2055BC001B4D40684FF47F4208230646009128463021B047D7F8A40101214FF400321123BE
:2055DC0040680091064604212846B047D7F8A401B4F89C1040684FF4F802122306460091DD
:2055FC0004212846B047D7F8A401B4F8A01040684FF440620A230446009120212846A0470A
:20561C00F8BD002084F8AC00F8BDC046542D002000A00C4000A00C400FB42DE9F04106AF7E
:20563C008046ADF1280D0CF0E3FB3E1D26F00306361D30F0010001D10BF077FDCDF81A606D
:20565C001420ADF816000025CDF80E50FF248DF818407B68CDF81E300CF0C6FB06460CF0FC
:20567C00C7FB30F0010015D00BF00AFC4D492A468446062031F80C7F4FB14B681B689E4285
:20569C0004D0401E02F10102F4D100E0D4B260460BF056FD404609F0EFFF0146FF2905D0F6
:2056BC00204603220DF11A0306F078FF0CF09CFB0AF00AFCA8460446CDF800800CF098FB1C
:2056DC0030F0010063D00098A04260D041F2883001A90AF007FA009D002852D10CF080FBC1
:2056FC000199012746186068019B41464FF000520CF03EFD00282BD00DF122000DF1230156
:20571C0002AA07F04FFDB0B99DF8220003A90AF001FA38B9029A0CF03FF800281CBF029D5B
:20573C00474615D1029968460AF0B8FB60684FF000510CF051FB0198B0F1FF3FD3D0002801
:20575C00D1D00CF04DFB301A02D00199814216D20BF070FA009E0BF093FB083401463EB1E9
:20577C00324652F80C0C40B9206842F80C0C266008460BF0E5FC384603E00246F1E701909E
:20579C00B1E720B92DB128460CF0C3F801E00BF0CCFCDDF81A0000680AB0BDE8F04104B03A
:2057BC007047C046882E0020F8B5454C454B2568186855F8183F00224FF0FF3198470AF051
:2057DC0039FA4149414AC86B414D4069414E417941481170002201680A804A800A71002727
:2057FC000068427100200CF02FFC0CF0F1FA3B4800680CF0E9FA0CF0E3FA4FF4D0740CE02E
:20581C006868F9B2614308444079012804D1F8B20BF0D0FD0CF0D0FA7F1C3178F8B288425A
:20583C00EED30CF0C5FA2E482E4A0178117008F0B5FA09F09FFD2C482C4A8078C1074CBFF7
:20585C00072105211170000711784CBFFF20FB200840107000202649264A087000211170A7
:20587C000120254A1070254A1170254A10704FF4A470244A1170244A1170244A1170244A8B
:20589C0011801B21234A1180234A2449108008804FF429602249234A0880FB21118044F220
:2058BC009020214A118021490880214908800CF07BFA0CF075FA1F4900200870F2BD00BFF2
:2058DC00200F00201C0F0020383D0100CA0F0020780E0020D40F0020400F00206C0F0020F0
:2058FC00C60F0020D30F0020C00C0020C50F0020CC0F0020CD0F0020CE0F0020CF0F0020C3
:20591C00D00F0020D10F0020D20F00205A4400209C0F00208A0F00208C0F00208E0F0020B1
:20593C00900F0020920F0020960F0020940F0020980F0020C80F00202DE9F8435F4CDFF8B2
:20595C0068815B4DD4F8B80000286ED0574E401E0AD0401E60D0401E1CD0401E53D0401E1C
:20597C001AD0401E33D02FE04E4801250221006884F8B65070220423406800910021074688
:20599C004046B847356004F130000BF0F0FF2846BDE8F883022100E003214FF08059D9F824
:2059BC00A40184F8B61040680025702204232946074600954046B847D9F8A401C068702258
:2059DC00294613460125DAE70320BDE8F88300262E606E6028688008FCD268688008FCD22B
:2059FC00374834490127001D06600E200F6003F0BFFB022009F08EFEC4F8B86084F8B7608C
:205A1C000220BDE8F8830520C4F8B8000027376030688008FCD242E00320C4F8B800002703
:205A3C00376030688008FCD239E0234F01260F202E6042F62A21C7F80B004FF08059C7F832
:205A5C000F10D9F8A40140684FF4C072072302218446404600910021E047D9F8A401C06864
:205A7C0000214FF4C072072384464046E0472E6028688008FCD394F8B500C7F81B6018B912
:205A9C00032100200E4602E0002028630321C4F8B86047F8011C686068688008FCD2002063
:205ABC00BDE8F883A401001000A00C4058600C4054600C4004800C4001400C40542D002007
:205ADC0038500C402DE9FE4FD0F8BC3089460022083B002BC8BF0122D0F894C0D0F8A4101E
:205AFC00634600931B6890468B420ED861464F69002FBC4600F08E8001218CF81010D0F826
:205B1C0094104FF0000A009100E08A46DCF80010A1EB0A01B1F5806F88BF4FF48061D0F8F8
:205B3C00AC7067B9C0F8AC10D9F800200192B2F1804F19BF384D394C394D3A4C0BE0C0F812
:205B5C00B010D9F800200192B2F1804F19BF364D364C374D374CDCF8047037B9364A4FEA9E
:205B7C008806935900F1CA020BE0344A4FEA8806935908F1010E0AFB0E7701FA08F2D21944
:205B9C00521EA3602260DDF804B00BF1080BC4F804B0A3680F0143F6F07EA7F110020EEA88
:205BBC00020E4EEA0302A260DCF8087027B9224A925900F1C80309E0214A925908F10104FE
:205BDC0001FA08F30AFB04741B195B1EAA606B60C5F800B0009FAA6867454EEA0202AA60A4
:205BFC0007D1D0F8A4205218C0F8A420D9F80010019101990A46496A41F003015162D0F87F
:205C1C00A000D9F814704268D9F81010126847EA01009062BDE8FE8F001900201019002086
:205C3C003018002040180020001B0020101B0020301A0020401A0020683C0100783C0100A4
:205C5C00703C01002DE9F84F044688B06088DFF860A189460CF0A0F8064604A80090237B53
:205C7C006189208904F10D020CF00EF98046B01F0790ADF8140000254E484F4E0690B8F1F2
:205C9C00000FAFB27DD0BDF810206088414606F02FFA0028834676D12079BDF8141003907B
:205CBC000022069802910192CDF800A041460368BDF810206088FEF763F80028834662D14A
:205CDC00A8B2002849D1608800234FF6FF7211210CF05EF80028706039D0BAF80000001DF7
:205CFC0070806D1C7168B8F80A00C855AAB2B8F80A007168000A8854BDF8102061890DF1BD
:205D1C00120340460CF0E0F86F1C80467D1CB8F1000FBFB203D17168FF20C85506E071683D
:205D3C00BDF81200C855BDF81200000A7168AAB26D1C8854069801687368BAF80020A8B2EA
:205D5C0018440BF063F9BAF80000451997E7B8F80A00A9F80000112010E0BAF800007188BF
:205D7C00021D914217D10799C0198142B9DA12E001002189A9F8001008BF0A2009B0BDE8C1
:205D9C00F08F002004E0B8F80A10A9F800105846ADB2002DECD0708897FBF0F03080314672
:205DBC0060880BF0F1FF0028E8D01620E6E700BF840F0020080F0020380C00202DE9F047B7
:205DDC0090460F460BF0DDFD4146DFF8548183248146381C1AD0401E00F09680401E00F016
:205DFC008A80DFF838A1401E23D0401E1BD0401E17D152461768002F0CBF0020F8680860F4
:205E1C005768002F14BFF868002010E0404600F110021768002F08BF802478D00069808FD3
:205E3C0074E0032473E0524610680860506848606DE00D68C8220021284605F049FD022701
:205E5C005146D44628462B4608315CF8042B5A600A7A1A744D689D6051F80C2B1E467F1EDB
:205E7C0006F114032A44F260EFD141460F6987B10A6913690F69C362BA8F02850A6992F8E8
:205E9C003E300E6980F83830336B0D6903636A6B42634F6903229FB14B691E694D69970078
:205EBC0007EB02131B185E60AE8F4F691E8097F83E604F691E743E6B4F699E607D6BDD6040
:205EDC000F6827B3521C52B20A2A20DA3B69910001EB021109184B60BB8F0B8097F83E30E3
:205EFC000B743B6B8B607B6BCB603F68561C72B2002FE9D10BE00B480278022A4FF000001C
:205F1C0008BF0120087002E007480078088048460CF0DEF82046BDE8F087C0460C4100207F
:205F3C00A4410020E0430020284000202DE9F04106467468B5680BF024FDD4F89410804697
:205F5C00002900F09D8094F8CC0028B9087C032818BF042840F0948028790BF014FDD4F847
:205F7C00A000416868690A68D06294F8CD701FB92B68D9684909FCD22B68596821F002014A
:205F9C0059602969D1622B68596A21F00301596229690843C2F804052968486920F001004E
:205FBC0048612868012707622868B0F1804F19BF3648374B3748384BD4F89420D4F8A8101D
:205FDC001160D4F8AC705FB18068C0F30910401C874205D3D4F894201168C919091A11601C
:205FFC00D4F8B0705FB19868C0F30910401C874205D3D4F894201168C919091A11603046DB
:20601C0007F09EFA28790BF0B8FC28790BF0BDFCD4F89470386857B100230222397C032990
:20603C001CBF04293A743B607F69002FF6D1D4F894100860D4F89C100022002904BFD4F8EB
:20605C009400C4F89C0004D04869B8B9D4F894004861C4F8A420C4F8A820C4F8AC20C4F8F1
:20607C00B020C4F89420C4F8982040460CF030F804F140000BF0A3FCBDE8F0810146E3E7B0
:20609C0040460CF025F8BDE8F081C04600190020001B002030180020301A00202DE9FE4F80
:2060BC0088460646564CF1892589C81D87B2A078EA19B2F5005F0BDD00F0A8FF874204DD78
:2060DC00607900B90520BDE8FE8FF1892589A0788346C81D42F2010287B2E819824240F365
:2060FC008980F288337A10128DF8012063F39F00B3888DF800000E469A1003F003008DF85E
:20611C000220C1F3851201F03F0342EA8012A9198DF8032098001FFA81F9F21D8DF80400D8
:20613C001FFA82FABAF10D0F25DB4046314600220BF0D1FA0246052168460BF0CCFA9DF890
:20615C0004103346962600F03F0742468DF8066041EAA0118DF80410B80040F00200294663
:20617C008DF80500584607F0DBFE57464D4607236A46607130E004F12C004146324604F00C
:20619C00E9FA9DF804300099301900F12C084046037100220160731D04F12C0099B20BF0BC
:2061BC009AFA9DF80410962300F03F0641EAA0118DF80630B0008DF8041040F002006E46D2
:2061DC0041468DF805003268B0790A60B28888713B468A8004F12C025846294607F0A0FEE2
:2061FC0060712189C919218130B1484609F078FA607901E005206071C0B2BDE8FE8FC04650
:20621C00103100202DE9FF4104466668A7680D460BF0B7FB3178012903D10BF059FF00206A
:20623C008DE0012131700BF053FF287870706878B07068687060A868B060E868F060286954
:20625C003061287D3075687D7075A87DB075A869B061287F3077687F4FF000087077A87F87
:20627C00C6F82080C6F83080B077454675627563B562B56386F82C5086F82D50786803F0DE
:20629C003FF8204603F07EFA204603F0FDF878B92C480068C068014638688847786802F0CF
:2062BC0067FF0BF06EFB35700BF012FF2C4645E068460BF0FFF83A7B06F17C00B968019234
:2062DC00214A00946B4608F0F9FC68460BF032F9396902911D49009406F198006A4608F0CB
:2062FC0039FEB07830B906F1CC00294609F05AFE17483061707830B906F1E800294609F0AF
:20631C0051FE1448F06068460BF088FA01958DF8005006F58270104902940A226B4607F020
:20633C004DFCB969FA6906F13C000BF088F80B4A06F16800042123460AF002F82046009099
:20635C00BDE8FF81D00100107D6300009DA50000FB180100F31801008DE5000051160100FF
:20637C002DE9F0478046D8F808603068076CD8F8045047646A6CA96B286C17F4F06FA0EB69
:20639C00020937D1F8091FD2780979D3B9B196F82100464A145C601E814294BF0C1C641EB8
:2063BC004046214609F08EF8A86B001BA863A86B002865D105F1980001210BF0FEFA404682
:2063DC00494609F0DFFA5BE00029F8D0404609F079F8014695F82D00A96318B9A86B00280B
:2063FC004ED101E00020A86305F1980001210BF0E4FA45E0F80A21D24FF0000A544603E0ED
:20641C00A86B401EA863A96B91B14046012109F059F83068446814F00F04C0F804A0EFD026
:20643C00296BAB6B686B491E2963401E6863EBB905F1980001210BF0C0FA13E03068446867
:20645C000022202904F00F044260CCBF4FF0200A8A464046514609F035F8CAF12000814564
:20647C00C8BF81464946404609F08CFAEC77404605F08AFF706A18B1024621464046904708
:20649C00B80910D3AF6A77B14046394609F06EF8A862AD6A3DB996F820000549095C404699
:2064BC00C91907F047FEBDE8F087C046B73C0100C33C01002DE9F04F924688468346ADF12A
:2064DC00A40D0BF049FE4F4C183CE678E779A57994F80890002808BF142000F08B806846F2
:2064FC000021A4220BF081FA28018DF80460279A43498DF8A07005F0030300F4807605F055
:20651C000407114043EA01023C4BADF800B0B9F1020F46EA020100F4C06603EA010246EACF
:20653C00020047EA00054FF00000279508BF01208DF837000BF024FC402809DD207A00283D
:20655C000CBF002008209DF8991008438DF89900607A002804BF00208DF8380017D00120BB
:20657C008DF8380004F1A00120220DF139000AF04DFD0DF1590004F1C00120220AF046FD63
:20659C000DF1790004F1E00120220AF03FFD2079002804BF00208DF8050008D08DF805008A
:2065BC0004F1400110220DF106000AF02FFD607948B1B8F1020F18BFB8F1030F03D127997B
:2065DC0041F002012791002100B10121A7789DF89900002F41EA00018DF899100CBF0020FE
:2065FC0004209DF8991008438DF89900514668460BF0C2FB29B0BDE8F08FC046FBF9FFFFC2
:20661C00FCFEFFFF6C2C002048482DE9F043006842F21072ADF1140DB0FBF2F1514340F2A4
:20663C00AB22401A82427CD84A4C94F8BE00002875D14FF001083E4E84F8BE80307B84F8FC
:20665C00BD007768C4F8E87001A80BF0E7F84FF000094D4604F10C00CDF8089001AB8DF881
:20667C000450344903952A4607F0A8FA01A80BF0D5F804F130000822029501AB8DF80450B0
:20669C002D49039507F09AFA2C4A04F1540032212B4608F013FB2A4F2A4A04F170002C211D
:2066BC002B463D6008F00AFB27480078274D767B6868C0F381501EB1032803D184F8B58094
:2066DC0003281FD002281DD001281BD14FF08057D7F8A4011E4C406803214FF040521C2388
:2066FC000646009149462046B047D7F8A401406849464FF4007209230646CDF80080204632
:20671C00B04706E0386840F040003860022009F01BF82868C00802D2484609F015F80020CA
:20673C0000E0FEE705B0BDE8F083C0461C140050B03B01005FC9000005E30000C50401005F
:20675C0090220840B9BB00005F440020B04F005000A00C40542D00202DE9F04305466E68A6
:20677C00AF680C46ADF1140D0BF00BF996F8D11021B96169102901D8042903D20BF0A8FC10
:20679C0000207EE04FF0010986F8D1900BF0A0FC2069C6F8B8006069C6F8BC00207B86F845
:2067BC00CD0020784FF0000886F8CC00606886F8D080C6F89480C6F89880C6F89C80324934
:2067DC00C6F8C000207E11F8200086F8CE00F889A6F8CA00207B00280CBF10204846C6F819
:2067FC00C400387B02F08CFD284606F0A9FEF87E86F8CF00284600F0F3F830B9387B02F0E6
:20681C00B7FC454686F8D1803AE068460AF052FE787900956B4639791C4A0190304608F0EF
:20683C004DFA68460AF086FEB96802911849009506F140006A4608F08DFB07F0BDFB96F87B
:20685C00CD10C6F8A000012906D1F06911490AF04FFFF06900B185600F4A06F12C00042155
:20687C002B4609F06DFD96F8CC0030B906F17400414609F097FB094800E0A068C6F89000E1
:20689C00284605B0BDE8F083003B01005D370000D5E90000FBBD000009180100EB18010035
:2068BC00F0B54E4C05462079ADF11C0D032840F09180002668461822267108236671314648
:2068DC000AF09AFF6846314609F05CFA6061A67009F010FB2946304607F0BEFC04F120010E
:2068FC0020610AF0AAFF216AA06AB1FBF0F2D5B2B0F5005F05F101022570D2B2627005D1F0
:20691C00606A2769800B18BF002F02D10120207162E0A078AA4219DA70B926B9207807F01B
